:0400000080314528DE
:100008007E1480312000911C43288D1D18280D1C5A
:10001800122822008C1819280C141A2822000C18EF
:1000280019280C108C141B2822000C108C1020008E
:100038000D1E2B288D1C252822008C192C280C1508
:100048002D2822000C192C280C118C152E28220082
:100058000C118C1120008D1E3E280D1D3828220001
:100068000C1B3F280C16402822000C1A3F280C12A3
:100078000C17412822000C120C13200091107E103E
:100088000900803147287E10200080314B287030CD
:100098002100990023008C018D0121008C013F3043
:1000A8008D0022008C01043020009C004F309B0002
:0E00B8009A019110210091140B178B176228EA
:020000040001F9
:04000E00E43FFF1FAD
:00000001FF
